{"contracts/web3_areaCalculator.sol":{"Web3AreaCalculator":{"abi":[{"inputs":[{"internalType":"uint256","name":"length","type":"uint256"},{"internalType":"uint256","name":"width","type":"uint256"}],"name":"RecArea","outputs":[{"internalType":"uint256","name":"","type":"uint256"}],"stateMutability":"pure","type":"function"},{"inputs":[{"internalType":"uint256","name":"side","type":"uint256"}],"name":"SquArea","outputs":[{"internalType":"uint256","name":"","type":"uint256"}],"stateMutability":"pure","type":"function"},{"inputs":[{"internalType":"uint256","name":"base","type":"uint256"},{"internalType":"uint256","name":"height","type":"uint256"}],"name":"TriArea","outputs":[{"internalType":"uint256","name":"","type":"uint256"}],"stateMutability":"pure","type":"function"}],"evm":{"bytecode":{"linkReferences":{},"object":"608060405234801561001057600080fd5b50610316806100206000396000f3fe608060405234801561001057600080fd5b50600436106100415760003560e01c806328bb2cc014610046578063744f7d4314610076578063b4083bdb146100a6575b600080fd5b610060600480360381019061005b9190610170565b6100d6565b60405161006d91906101bb565b60405180910390f35b610090600480360381019061008b9190610147565b6100fd565b60405161009d91906101bb565b60405180910390f35b6100c060048036038101906100bb9190610170565b610117565b6040516100cd91906101bb565b60405180910390f35b600080600283856100e79190610207565b6100f191906101d6565b90508091505092915050565b600080828361010c9190610207565b905080915050919050565b60008082846101269190610207565b90508091505092915050565b600081359050610141816102c9565b92915050565b60006020828403121561015957600080fd5b600061016784828501610132565b91505092915050565b6000806040838503121561018357600080fd5b600061019185828601610132565b92505060206101a285828601610132565b9150509250929050565b6101b581610261565b82525050565b60006020820190506101d060008301846101ac565b92915050565b60006101e182610261565b91506101ec83610261565b9250826101fc576101fb61029a565b5b828204905092915050565b600061021282610261565b915061021d83610261565b9250817fffffffffffffffffffffffffffffffffffffffffffffffffffffffffffffffff04831182151516156102565761025561026b565b5b828202905092915050565b6000819050919050565b7f4e487b7100000000000000000000000000000000000000000000000000000000600052601160045260246000fd5b7f4e487b7100000000000000000000000000000000000000000000000000000000600052601260045260246000fd5b6102d281610261565b81146102dd57600080fd5b5056fea2646970667358221220ec0f0e7ded146589a7ad96d67ac293993cc881ff2735e06483a97fab5d38a47464736f6c63430008000033","opcodes":"PUSH1 0x80 PUSH1 0x40 MSTORE CALLVALUE DUP1 ISZERO PUSH2 0x10 JUMPI PUSH1 0x0 DUP1 REVERT JUMPDEST POP PUSH2 0x316 DUP1 PUSH2 0x20 PUSH1 0x0 CODECOPY PUSH1 0x0 RETURN INVALID PUSH1 0x80 PUSH1 0x40 MSTORE CALLVALUE DUP1 ISZERO PUSH2 0x10 JUMPI PUSH1 0x0 DUP1 REVERT JUMPDEST POP PUSH1 0x4 CALLDATASIZE LT PUSH2 0x41 JUMPI PUSH1 0x0 CALLDATALOAD PUSH1 0xE0 SHR DUP1 PUSH4 0x28BB2CC0 EQ PUSH2 0x46 JUMPI DUP1 PUSH4 0x744F7D43 EQ PUSH2 0x76 JUMPI DUP1 PUSH4 0xB4083BDB EQ PUSH2 0xA6 JUMPI JUMPDEST PUSH1 0x0 DUP1 REVERT JUMPDEST PUSH2 0x60 PUSH1 0x4 DUP1 CALLDATASIZE SUB DUP2 ADD SWAP1 PUSH2 0x5B SWAP2 SWAP1 PUSH2 0x170 JUMP JUMPDEST PUSH2 0xD6 JUMP JUMPDEST PUSH1 0x40 MLOAD PUSH2 0x6D SWAP2 SWAP1 PUSH2 0x1BB JUMP JUMPDEST PUSH1 0x40 MLOAD DUP1 SWAP2 SUB SWAP1 RETURN JUMPDEST PUSH2 0x90 PUSH1 0x4 DUP1 CALLDATASIZE SUB DUP2 ADD SWAP1 PUSH2 0x8B SWAP2 SWAP1 PUSH2 0x147 JUMP JUMPDEST PUSH2 0xFD JUMP JUMPDEST PUSH1 0x40 MLOAD PUSH2 0x9D SWAP2 SWAP1 PUSH2 0x1BB JUMP JUMPDEST PUSH1 0x40 MLOAD DUP1 SWAP2 SUB SWAP1 RETURN JUMPDEST PUSH2 0xC0 PUSH1 0x4 DUP1 CALLDATASIZE SUB DUP2 ADD SWAP1 PUSH2 0xBB SWAP2 SWAP1 PUSH2 0x170 JUMP JUMPDEST PUSH2 0x117 JUMP JUMPDEST PUSH1 0x40 MLOAD PUSH2 0xCD SWAP2 SWAP1 PUSH2 0x1BB JUMP JUMPDEST PUSH1 0x40 MLOAD DUP1 SWAP2 SUB SWAP1 RETURN JUMPDEST PUSH1 0x0 DUP1 PUSH1 0x2 DUP4 DUP6 PUSH2 0xE7 SWAP2 SWAP1 PUSH2 0x207 JUMP JUMPDEST PUSH2 0xF1 SWAP2 SWAP1 PUSH2 0x1D6 JUMP JUMPDEST SWAP1 POP DUP1 SWAP2 POP POP SWAP3 SWAP2 POP POP JUMP JUMPDEST PUSH1 0x0 DUP1 DUP3 DUP4 PUSH2 0x10C SWAP2 SWAP1 PUSH2 0x207 JUMP JUMPDEST SWAP1 POP DUP1 SWAP2 POP POP SWAP2 SWAP1 POP JUMP JUMPDEST PUSH1 0x0 DUP1 DUP3 DUP5 PUSH2 0x126 SWAP2 SWAP1 PUSH2 0x207 JUMP JUMPDEST SWAP1 POP DUP1 SWAP2 POP POP SWAP3 SWAP2 POP POP JUMP JUMPDEST PUSH1 0x0 DUP2 CALLDATALOAD SWAP1 POP PUSH2 0x141 DUP2 PUSH2 0x2C9 JUMP JUMPDEST SWAP3 SWAP2 POP POP JUMP JUMPDEST PUSH1 0x0 PUSH1 0x20 DUP3 DUP5 SUB SLT ISZERO PUSH2 0x159 JUMPI PUSH1 0x0 DUP1 REVERT JUMPDEST PUSH1 0x0 PUSH2 0x167 DUP5 DUP3 DUP6 ADD PUSH2 0x132 JUMP JUMPDEST SWAP2 POP POP SWAP3 SWAP2 POP POP JUMP JUMPDEST PUSH1 0x0 DUP1 PUSH1 0x40 DUP4 DUP6 SUB SLT ISZERO PUSH2 0x183 JUMPI PUSH1 0x0 DUP1 REVERT JUMPDEST PUSH1 0x0 PUSH2 0x191 DUP6 DUP3 DUP7 ADD PUSH2 0x132 JUMP JUMPDEST SWAP3 POP POP PUSH1 0x20 PUSH2 0x1A2 DUP6 DUP3 DUP7 ADD PUSH2 0x132 JUMP JUMPDEST SWAP2 POP POP SWAP3 POP SWAP3 SWAP1 POP JUMP JUMPDEST PUSH2 0x1B5 DUP2 PUSH2 0x261 JUMP JUMPDEST DUP3 MSTORE POP POP JUMP JUMPDEST PUSH1 0x0 PUSH1 0x20 DUP3 ADD SWAP1 POP PUSH2 0x1D0 PUSH1 0x0 DUP4 ADD DUP5 PUSH2 0x1AC JUMP JUMPDEST SWAP3 SWAP2 POP POP JUMP JUMPDEST PUSH1 0x0 PUSH2 0x1E1 DUP3 PUSH2 0x261 JUMP JUMPDEST SWAP2 POP PUSH2 0x1EC DUP4 PUSH2 0x261 JUMP JUMPDEST SWAP3 POP DUP3 PUSH2 0x1FC JUMPI PUSH2 0x1FB PUSH2 0x29A JUMP JUMPDEST JUMPDEST DUP3 DUP3 DIV SWAP1 POP SWAP3 SWAP2 POP POP JUMP JUMPDEST PUSH1 0x0 PUSH2 0x212 DUP3 PUSH2 0x261 JUMP JUMPDEST SWAP2 POP PUSH2 0x21D DUP4 PUSH2 0x261 JUMP JUMPDEST SWAP3 POP DUP2 PUSH32 0xFFFFFFFFFFFFFFFFFFFFFFFFFFFFFFFFFFFFFFFFFFFFFFFFFFFFFFFFFFFFFFFF DIV DUP4 GT DUP3 ISZERO ISZERO AND ISZERO PUSH2 0x256 JUMPI PUSH2 0x255 PUSH2 0x26B JUMP JUMPDEST JUMPDEST DUP3 DUP3 MUL SWAP1 POP SWAP3 SWAP2 POP POP JUMP JUMPDEST PUSH1 0x0 DUP2 SWAP1 POP SWAP2 SWAP1 POP JUMP JUMPDEST PUSH32 0x4E487B7100000000000000000000000000000000000000000000000000000000 PUSH1 0x0 MSTORE PUSH1 0x11 PUSH1 0x4 MSTORE PUSH1 0x24 PUSH1 0x0 REVERT JUMPDEST PUSH32 0x4E487B7100000000000000000000000000000000000000000000000000000000 PUSH1 0x0 MSTORE PUSH1 0x12 PUSH1 0x4 MSTORE PUSH1 0x24 PUSH1 0x0 REVERT JUMPDEST PUSH2 0x2D2 DUP2 PUSH2 0x261 JUMP JUMPDEST DUP2 EQ PUSH2 0x2DD JUMPI PUSH1 0x0 DUP1 REVERT JUMPDEST POP JUMP INVALID LOG2 PUSH5 0x6970667358 0x22 SLT KECCAK256 0xEC 0xF 0xE PUSH30 0xED146589A7AD96D67AC293993CC881FF2735E06483A97FAB5D38A4746473 PUSH16 0x6C634300080000330000000000000000 "},"methodIdentifiers":{"RecArea(uint256,uint256)":"b4083bdb","SquArea(uint256)":"744f7d43","TriArea(uint256,uint256)":"28bb2cc0"}}}}}