{
  "_format": "hh-sol-artifact-1",
  "contractName": "Web3AreaCalculator",
  "sourceName": "contracts/web3_areaCalculator.sol",
  "abi": [
    {
      "inputs": [
        {
          "internalType": "uint256",
          "name": "length",
          "type": "uint256"
        },
        {
          "internalType": "uint256",
          "name": "width",
          "type": "uint256"
        }
      ],
      "name": "RecArea",
      "outputs": [
        {
          "internalType": "uint256",
          "name": "",
          "type": "uint256"
        }
      ],
      "stateMutability": "pure",
      "type": "function"
    },
    {
      "inputs": [
        {
          "internalType": "uint256",
          "name": "side",
          "type": "uint256"
        }
      ],
      "name": "SquArea",
      "outputs": [
        {
          "internalType": "uint256",
          "name": "",
          "type": "uint256"
        }
      ],
      "stateMutability": "pure",
      "type": "function"
    },
    {
      "inputs": [
        {
          "internalType": "uint256",
          "name": "base",
          "type": "uint256"
        },
        {
          "internalType": "uint256",
          "name": "height",
          "type": "uint256"
        }
      ],
      "name": "TriArea",
      "outputs": [
        {
          "internalType": "uint256",
          "name": "",
          "type": "uint256"
        }
      ],
      "stateMutability": "pure",
      "type": "function"
    }
  ],
  "bytecode": "0x608060405234801561001057600080fd5b50610316806100206000396000f3fe608060405234801561001057600080fd5b50600436106100415760003560e01c806328bb2cc014610046578063744f7d4314610076578063b4083bdb146100a6575b600080fd5b610060600480360381019061005b9190610170565b6100d6565b60405161006d91906101bb565b60405180910390f35b610090600480360381019061008b9190610147565b6100fd565b60405161009d91906101bb565b60405180910390f35b6100c060048036038101906100bb9190610170565b610117565b6040516100cd91906101bb565b60405180910390f35b600080600283856100e79190610207565b6100f191906101d6565b90508091505092915050565b600080828361010c9190610207565b905080915050919050565b60008082846101269190610207565b90508091505092915050565b600081359050610141816102c9565b92915050565b60006020828403121561015957600080fd5b600061016784828501610132565b91505092915050565b6000806040838503121561018357600080fd5b600061019185828601610132565b92505060206101a285828601610132565b9150509250929050565b6101b581610261565b82525050565b60006020820190506101d060008301846101ac565b92915050565b60006101e182610261565b91506101ec83610261565b9250826101fc576101fb61029a565b5b828204905092915050565b600061021282610261565b915061021d83610261565b9250817fffffffffffffffffffffffffffffffffffffffffffffffffffffffffffffffff04831182151516156102565761025561026b565b5b828202905092915050565b6000819050919050565b7f4e487b7100000000000000000000000000000000000000000000000000000000600052601160045260246000fd5b7f4e487b7100000000000000000000000000000000000000000000000000000000600052601260045260246000fd5b6102d281610261565b81146102dd57600080fd5b5056fea2646970667358221220ec0f0e7ded146589a7ad96d67ac293993cc881ff2735e06483a97fab5d38a47464736f6c63430008000033",
  "linkReferences": {},
  "deployedLinkReferences": {}
}